:020000000029D5
:10000800F000030EF1000B1C0E28061C7314861C4E
:0E001800F3140B10710E8300F00E700E090031
:10020000031383160F178F160F160F140317831679
:10021000880189010313831686140614850187015A
:1002200088018901031383160115811401148113B8
:100230000313831285018601870188018901F20178
:10024000031383128B178B128B150B110B100313D7
:100250008316033096009500F30173183221F318CA
:1002600037212D29850A051A8501F3010800850328
:0A0270000F3005188500F3010800A7
:04400E00D420FF3F7C
:00000001FF
