:020000000029D5
:10000800F000030EF1000B1813280B190C281B28FD
:100018000B1103138312F40AB33081001B28031356
:100028008312061F850A861F85030B101B28710E75
:080038008300F00E700E0900B8
:10020000031383160F178F160F120F14031783167D
:100210008801890103138316C03086008501870198
:10022000880189010313831681128111011581143C
:10023000011481130313831285018601870188014C
:100240008901031383128B178B168B150B110B105F
:1002500003138316C0309600950003138312B33046
:100260008100F401F201F301860A3C297408323C52
:10027000031D3629F4013429031106080A3C031929
:10028000452906085521880036290311F20A72080B
:10029000063C0319512172085521F30073098700A8
:1002A00008008801F201870108008A010A140F3949
:1002B00082073F3406345B344F3466346D347D340A
:1002C00007347F346F3477347F3439343F347934B2
:0202D000713487
:04400E00D420FF3F7C
:00000001FF
