:020000000029D5
:10000800F000030EF1000B1813280B190C281B28FD
:100018000B1103138312F30AB23081001B28031358
:100028008312061F850A861F85030B101B28710E75
:080038008300F00E700E0900B8
:10020000031383160F178F160F120F14031783167D
:100210008801890103138316C03086008501870198
:10022000880189010313831681128111011581143C
:10023000011481130313831285018601870188014C
:100240008901031383128B178B168B150B110B105F
:1002500003138316C0309600950003138312B23047
:100260008100F301860A7308323C031D3329F30130
:02027000322931
:04400E00D420FF3F7C
:00000001FF
