:020000000029D5
:10000800F000030EF1000B1813280B190C281B28FD
:100018000B1103138312F40AB33081001B28031356
:100028008312061F850A861F85030B101B28710E75
:080038008300F00E700E0900B8
:10020000031383160F178F160F120F14031783167D
:100210008801890103138316C03086008501870198
:10022000880189010313831681128111011581143C
:10023000011481130313831285018601880189014A
:10024000FF308700031383128B178B168B150B114E
:100250000B1003138316C03096009500031383120E
:10026000B3308100F401F201F301860A3D297408DC
:10027000323C031D3729F4013529031106080F39D3
:100280000A3C0319472106085921880037298601AD
:100290000311F20A7208063C03195421720859210D
:1002A000F3007309870008008801F2018701F30158
:1002B00008008A010A140F3982073F3406345B3480
:1002C0004F3466346D347D3407347F346F34773483
:0A02D0007F3439343F34793471343F
:04400E00D420FF3F7C
:00000001FF
