:020000000029D5
:10000800F000030EF1000B1C102803138312061FC7
:10001800850A861F85030B10710E8300F00E700E83
:020028000900CD
:10020000031383160F178F160F160F140317831679
:100210008801890103138316861706178501870154
:10022000880189010313831681128111011581143C
:10023000011481130313831285018601870188014C
:100240008901031383128B178B150B10031383166D
:08025000C030960095002B2937
:04400E00D420FF3F7C
:00000001FF
